S00B0000436F6D2E73726563FA
S11300000C9438000C9442000C9442000C9442006E
S11300100C9442000C9442000C9442000C94420054
S11300200C9442000C9442000C9442000C94420044
S11300300C9442000C9442000C9442000C94420034
S11300400C9442000C9442000C9442000C94420024
S11300500C9442000C9442000C9442000C94420014
S11300600C9442000C9442000C9442000C94420004
S113007011241FBECFEFD4E0DEBFCDBF0E945000DD
S11300800C9461000C94000010BC8FE189B988E1E4
S11300908AB98EE880BD08955D9BFECF8CB9089522
S11300A08FE391E00E94440087E30E944C002FEF0D
S11300B08FEF9EE0215080409040E1F700C00000A7
S10900C0F3CFF894FFCF1A
S9030000FC
