S0100000456D6265646465642E737265630A
S11300000C94D0030C94ED030C94ED030C942F0882
S11300100C94ED030C94ED030C94ED030C94ED039C
S11300200C94ED030C94ED030C94ED030C94ED038C
S11300300C94ED030C94ED030C94ED030C94ED037C
S11300400C94ED030C94ED030C94ED030C94ED036C
S11300500C94ED030C94ED030C94ED030C94ED035C
S11300600C94ED030C94ED030C94ED030C94ED034C
S1130070000000000000000000000000000000007C
S1130080000000000000000000000000000000006C
S1130090060909060000000000000000000000003E
S11300A0000000000000000000000000000000004C
S11300B00C122121120C00000000000000000000BE
S11300C0000000000000000000000000000000002C
S11300D03C4281818181423C00000000000000001C
S11300E0000000000000000000000000000000000C
S11300F078840201010101028478000000000000FC
S113010000000102020202010000000000000000E1
S1130110F804020101010101010204F800000000D9
S1130120010204080808080808040201000000008D
S1130130F0080402010101010101020408F00000B9
S113014003040810202020202020100804030000AD
S113015000000000005C00000C000C007C287C28DF
S113016058DC68002410480028542840000C000083
S1130170007884008478000054385400107C100007
S113018080400000101010000040000060100C00BF
S113019038543800487C40004864580044542C00CB
S11301A01C107C005C5424003854240064140C009B
S11301B068542C004854380000480000804800006F
S11301C0102844002828280044281000045408005B
S11301D038445C00781478007C54280038442800A3
S11301E07C4438007C5444007C140400384474007B
S11301F07C107C00447C440020403C007C106C005B
S11302007C4040007C187C0078103C003844380066
S11302107C1408003844B8007C1468004854240056
S1130220047C04007C407C003C603C007C307C000E
S11302306C106C000C700C0064544C00007C440086
S11302400C106000447C00000804080080808000DA
S113025000040800304878007C48300030484800EA
S113026030487C00306850001078140090A8780062
S11302707C08700050744000808074007C1068001A
S1130280447C4000781078007808700030483000D2
S1130290F82810003048F80078100800505828005A
S11302A0083C48003840780038403800782078000E
S11302B04830480098A078004868580010788400B6
S11302C0007C00008478100008040804000000008A
S11302D00000005F00000007000700147F147F1473
S11302E0242A7F2A122313086462364955225000B7
S11302F005030000001C2241000041221C00082AC2
S11303001C2A0808083E08080050300000080808A5
S11303100808006060000020100804023E514945AE
S11303203E00427F400042615149462141454B31E4
S11303301814127F1027454545393C4A4949300174
S1130340710905033649494936064949291E0036CB
S1130350360000005636000000081422411414141C
S1130360141441221408000201510906324979414A
S11303703E7E1111117E7F494949363E4141412259
S11303807F4141221C7F494949417F090901013EBE
S1130390414151327F0808087F00417F41002040DD
S11303A0413F017F081422417F404040407F0204C6
S11303B0027F7F0408107F3E4141413E7F090909C5
S11303C0063E4151215E7F09192946464949493172
S11303D001017F01013F4040403F1F2040201F7F1B
S11303E02018207F63140814630304780403615104
S11303F049454300007F4141020408102041417FE8
S11304000000040201020440404040400001020494
S11304100020545454787F48444438384444442099
S1130420384444487F3854545418087E090102085B
S11304301454543C7F0804047800447D4000204058
S1130440443D00007F10284400417F40007C041894
S113045004787C0804047838444444387C14141424
S113046008081414187C7C080404084854545420C4
S1130470043F4440203C4040207C1C2040201C3C45
S11304804030403C44281028440C5050503C4464B4
S1130490544C44000836410000007F0000004136FF
S11304A00800020103020100000000000000000037
S11304B0065F5F060000000007070007070000143E
S11304C07F7F147F7F1400242E6B6B3A120000464A
S11304D06630180C666200307A4F5D377A48000443
S11304E007030000000000001C3E63410000000000
S11304F041633E1C000000082A3E1C1C3E2A0808DA
S1130500083E3E0808000000A0E06000000000086B
S1130510080808080800000000606000000000608F
S113052030180C060301003E7F594D7F3E00004207
S1130530427F7F40400000627359496F6600002289
S11305406349497F360000181C16137F7F1000276B
S11305506745457D3900003C7E4B497930000003F6
S11305606371190F070000367F49497F3600000682
S11305704F49693F1E000000006C6C000000000041
S1130580A0EC6C00000000081C366341000000145D
S113059014141414140000004163361C08000002F3
S11305A00351590F0600003E7F415D5D1F1E007C14
S11305B07E13137E7C0000417F7F49497F36001CF7
S11305C03E634141632200417F7F41637F1C0041C0
S11305D07F7F495D416300417F7F491D0103001C0A
S11305E03E6341517372007F7F08087F7F000000E3
S11305F0417F7F41000000307040417F3F01004156
S11306007F7F081C776300417F7F41406070007FDB
S11306107F060C067F7F007F7F060C187F7F001CFF
S11306203E6341633E1C00417F7F49090F06001E63
S11306303F21717F5E0000417F7F19396F4600269C
S1130640674D597B32000003417F7F410300007FE7
S11306507F40407F7F00001F3F60603F1F00007F9E
S11306607F3018307F7F0063771C081C7763000796
S11306704F78784F0700006773594D476371000046
S11306807F7F41410000000103060C183060000028
S113069041417F7F000000080C0603060C0800801F
S11306A08080808080808000000307040000002098
S11306B07454543C784000413F7F44447C380038B3
S11306C07C44446C280000307848493F7F4000381F
S11306D07C54545C180000487E7F49030200009853
S11306E0BCA4A4F87C0400417F7F08047C7800004B
S11306F0447D7D4000000040C484FD7D0000004135
S11307007F7F10386C440000417F7F400000007CF4
S11307107C0C180C7C78007C7C04047C7800003809
S11307207C44447C38000084FCF8A4243C18001861
S11307303C24A4F8FC8400447C78441C1800004841
S11307405C54547424000000043E7F442400003CA4
S11307507C40403C7C40001C3C60603C1C00003CF5
S11307607C6030607C3C00446C3810386C44009CE5
S1130770BCA0A0FC7C00004C64745C4C64000008C9
S1130780083E7741410000000000777700000041F7
S113079041773E0808000002030103020301000040
S11307A011241FBECFEFD4E0DEBFCDBF12E0A0E026
S11307B0B1E0EEEFFAE102C005900D92A232B1076A
S11307C0D9F722E0A2E2B2E001C01D92A233B2073F
S11307D0E1F70E9485080C947D0D0C9400009FEFB6
S11307E0980F943050F4E0E0F4E18D5F808382E66A
S11307F08A95F1F700008081089580E008950E94B1
S11308003A0740E460EE8FE00E94730740E660E63A
S113081080E60E9473078EE00E9426071F928F9342
S11308208AE191E09F938F930E942B0941E061E05C
S11308308BE20E9473070F900F900F900F90089512
S1130840CF92DF92EF92FF921F93CF93DF936C01CD
S1130850FC016081718176956795769567957695AB
S1130860679581E30E944C07F60160816295660FEB
S1130870607E82E30E944C07F60162816F7085E31B
S11308800E944C07F60182811816BCF47601F3E04D
S1130890EF0EF11C16E3C0E0D0E0F70161917F0197
S11308A0812F0E944C0721961F5FF6018281082E3A
S11308B0000C990BC817D90784F380E090E00E94DC
S11308C05E07DF91CF911F91FF90EF90DF90CF9063
S11308D008958F929F92AF92BF92CF92DF92EF9240
S11308E0FF920F931F93CF93DF93CDB7DEB72B9770
S11308F00FB6F894DEBF0FBECDBF4C018CE20E9450
S1130900260780FF58C081E60E942607A82E82E6AB
S11309100E942607B12CAA0CBB1CAA0CBB1CAA0C57
S1130920BB1C829586958770A82A85E60E942607B7
S1130930082F0F701016ACF47E0124E0E20EF11CB7
S1130940CE01800F911DFC0134966F0116E6812FB4
S11309500E942607F70181937F011F5FEC15FD05B7
S1130960B1F78C811F928F9386E291E09F938F93CE
S11309700E942B0985E60E9426071F928F938DE320
S113098091E09F938F930E942B0940E061E08CE2F9
S11309900E947307BA82A9820B838BE0FE01319611
S11309A0D40101900D928A95E1F70FB6F894DEBF59
S11309B00FBECDBF08C088E591E09F938F930E943E
S11309C02B090F900F90C4012B960FB6F894DEBF3D
S11309D00FBECDBFDF91CF911F910F91FF90EF908C
S11309E0DF90CF90BF90AF909F908F900895E0914B
S11309F00801F09109018EEA8083E0910801F091E9
S1130A00090181EA8083E0910801F09109018AEDEE
S1130A108083E0910801F091090182E18083E091F3
S1130A200801F091090188EC8083E0910801F091BC
S1130A30090188EA8083E0910801F09109018FE3BC
S1130A408083E0910801F091090185ED8083E091B4
S1130A500801F091090180E88083E0910801F09198
S1130A60090181E88083E0910801F091090180E5A2
S1130A708083E0910801F091090189ED8083E09180
S1130A800801F091090181E28083E0910801F0916D
S1130A90090180E28083E0910801F091090182E07C
S1130AA08083E0910801F09109018BED8083E0914E
S1130AB00801F091090180E38083E0910801F0913D
S1130AC009018DEA8083E0910801F0910901108207
S1130AD0E0910801F091090184EA8083E091080122
S1130AE0F091090186EA8083E0910801F0910901FF
S1130AF08FEA8083089580932202883088F4E091FD
S1130B000801F09109011082E0910801F0910901B6
S1130B1090E19083806BE0910801F091090180835A
S1130B2008958A3031F4809122028F5F0E947B0500
S1130B30089590E09C01220F331F220F331F820F70
S1130B40931F20E030E0805A9109A0910601B091F2
S1130B500701FC01E20FF31FE453FD4FE491EC9312
S1130B602F5F3F4F2530310581F70895CF93DF93F1
S1130B70EC018881882331F021960E9491058991A6
S1130B808111FBCFDF91CF9108958A3031F48091A8
S1130B9022028F5F0E947B0508956230710509F17E
S1130BA06330710509F43AC06130710509F053C02E
S1130BB090E0FC01EE0FFF1FEE0FFF1FE053FF4F0D
S1130BC0880F991F880F991F8C529F4FA09106017F
S1130BD0B091070124912C933196E817F907B1F7E6
S1130BE0089590E09C01220F331F220F331F820FC0
S1130BF0931F20E030E0805A9109A0910601B09142
S1130C000701FC01E20FF31FE453FD4FE491EC9361
S1130C102F5F3F4F2530310581F7089590E0FC01A7
S1130C20EE0FFF1FEE0FFF1FEE0FFF1FE955FC4FE6
S1130C30880F991F880F991F880F991F81559C4F02
S1130C40A0910601B091070124912C933196E817E5
S1130C50F907B1F7089590E09C01220F331F220F8A
S1130C60331F820F931F20E030E0805A9109A09136
S1130C700601B0910701FC01E20FF31FE453FD4F9D
S1130C80E491EC932F5F3F4F2530310581F70895B0
S1130C900F931F93CF93DF93EC018881882341F056
S1130CA08B012196B8010E94C50589918111FACF63
S1130CB0DF91CF911F910F9108950E947B0580E8E9
S1130CC090E0E0910601F091070110820197C9F7C5
S1130CD0089588237CF0982F92959F70E0910801E5
S1130CE0F091090190838F708061E0910801F09187
S1130CF00901808308951092220280E00E947B05FE
S1130D0080E00E9469060895CF93C0E08C2F0E9472
S1130D105D06CF5FC830D1F70E947B06CF9108955E
S1130D20DF92EF92FF920F931F93CF93DF9348309C
S1130D3008F056C0042FF62EE82EC42FD0E02197D9
S1130D400E947B05DF2CFF200CF44DC0E0910801CC
S1130D50F09109019F2D92959F709083E091080175
S1130D60F0910901905F90833EC0A0910601B0917B
S1130D70070194919C938FEF9FE50197F1F700C0D1
S1130D8000003196E217F30781F781E08E0D0E948F
S1130D907B058F2D0E946906DD20C4F1E0910801D6
S1130DA0F09109016F2D62956F706083E0910801E5
S1130DB0F0910901605F608329C0A0910601B091A0
S1130DC0070184918C938FEF9FE50197F1F700C0A1
S1130DD000003196E217F30781F780E090E01DC030
S1130DE08FEF9FEF1AC0CC0FDD1FC295D295D07F35
S1130DF0DC27C07FDC27FE01E059FF4F90E2099F0A
S1130E00800111249801205A3F4FAFCFFE01E058D2
S1130E10FF4F980120593F4FD0CFDF91CF911F91C1
S1130E200F91FF90EF90DF90089517B816BE80E8F9
S1130E308FBF80E28BBF82E00E94EF038093240285
S1130E4081E00E94EF03809323020895CF93C82F7B
S1130E50C49883E00E94D5088C2F0E94D5080E9474
S1130E60D908C49ACF910895C49880EC0E94D508FB
S1130E70C49A08950E94CE080E9434078EE00E940E
S1130E802607807E803831F08FE791E00E94410987
S1130E9081E0089580E00895CF93DF93D82FC62F83
S1130EA0C49882E00E94D5088D2F0E94D5088C2F0B
S1130EB00E94D508C49ADF91CF910895C4980097F1
S1130EC021F481E80E94D5080CC08130910521F4F9
S1130ED082E80E94D50805C0029719F484E80E94AC
S1130EE0D508C49A08951F93CF93DF93182FD62F54
S1130EF0C42FC49885E00E94D508812F0E94D5088C
S1130F008D2F0E94D5088C2F0E94D508C49ADF919A
S1130F10CF911F91089542E063E0809125020E94E1
S1130F20900608950F931F93CF93DF930E94840636
S1130F30109227021092260280910A0190910B01CF
S1130F4018161906DCF402E111E0C0E0D0E081E0FB
S1130F500E94690663E070E0F801819191918F012C
S1130F600E94480686ED91E00E94B6052196809184
S1130F700A0190910B01C817D9074CF30E948B0703
S1130F80DF91CF911F910F9108950F931F93CF93EA
S1130F90DF930E94840681E090E09093270280937F
S1130FA0260280910A0190910B0118161906DCF4AF
S1130FB00CE011E0C0E0D0E081E00E94690662E04C
S1130FC070E0F801819191918F010E94480686EDAD
S1130FD091E00E94B605219680910A0190910B013F
S1130FE0C817D9074CF30E948B07DF91CF911F914B
S1130FF00F91089580912502811108C080912602E5
S113100090912702892B51F50E94C50780912502F2
S11310108330C1F48091260290912702892BF1F448
S11310200E94840647E06CE383E00E9490062FEF61
S11310308FEF9DE1215080409040E1F700C0000017
S11310400E94920780912502823041F48091260209
S113105090912702019711F40E94920708951F921C
S11310600F920FB60F9211242F933F934F935F93D8
S11310706F937F938F939F93AF93BF93EF93FF935C
S113108081EB91E00E9441098091250290E0019654
S11310909F938F9382EC91E09F938F930E942B09EF
S11310A00E94FA070F900F900F900F90FF91EF910D
S11310B0BF91AF919F918F917F916F915F914F916C
S11310C03F912F910F900FBE0F901F90189580E8BD
S11310D085BF80E280BF08955D9BFECF8CB980E020
S11310E090E008955F9BFECF8CB190E0089510BC12
S11310F08FE189B988E18AB98EE880BD62E778E03A
S11311008CE698E00E94E0080895CF93DF93CDB772
S1131110DEB766970FB6F894DEBF0FBECDBF8FE380
S113112091E00E9477080E9467080E9415070E94B8
S1131130F7040E9484060E9492070E94FF0381E044
S113114090E09A83898383E08B8385E08C8382E0BB
S11311508D8387E08E8305E012E0CE0101960E9424
S113116020048FEF9FE80197F1F700C00000CE0143
S11311700C960E94690489891F928F9388891F9213
S11311808F938F851F928F931F930F930E942B0928
S11311900FB6F894DEBF0FBECDBFDFCF87B3806B31
S11311A087BBBE9881E58DB908958FB9779BFECF33
S11311B0089580E00E94D508779BFECF8FB10895F3
S11311C00F931F93CF93DF93009731F4611571054B
S11311D019F480E090E03AC08B01EC016EE070E01D
S11311E081E090E00E94520BFC01892B91F380E88E
S11311F083830115110571F01387028781E88383C6
S11312008091280290912902892B21F4F0932902DC
S1131210E09328022097C9F0D187C0878381826038
S1131220838380912A0290912B02892B71F4F0938D
S11312302B02E0932A0280912C0290912D02892B9B
S113124021F4F0932D02E0932C02CF01DF91CF9192
S11312501F910F910895A0E0B0E0E1E3F9E00C9450
S1131260560DAE014B5F5F4FFA0161917191AF0171
S113127080912A0290912B020E947109E2E00C9461
S1131280720D0F931F93CF93DF93E0912A02F09195
S11312902B02238121FF1BC08C01D0E0C0E0F801A8
S11312A081918F0160912A0270912B02DB011896C3
S11312B0ED91FC911997882331F00995892B79F3E5
S11312C0DFEFCFEFECCF8AE00995892B19F08FEF90
S11312D09FEF02C08D2F9C2FDF91CF911F910F9113
S11312E00895ABE0B0E0E7E7F9E00C94460D6C013B
S11312F07B018A01FC0117821682838181FFCCC1A4
S1131300CE0101963C01F6019381F70193FD85918D
S113131093FF81917F01882309F4BAC1853239F49E
S113132093FD859193FF81917F01853229F4B60164
S113133090E00E94AC0CE7CF912C212C312CFFE1E2
S1131340F315D8F08B3279F038F4803279F08332A7
S1131350A1F4232D20611DC08D3261F0803369F426
S1131360232D216016C0832D8260382EE32DE46086
S11313703E2E2AC0F32DF8601DC037FC2DC020ED91
S1131380280F2A3040F08E32B9F436FC81C1232D67
S11313902064322E19C036FE06C08AE0989E200DC5
S11313A01124922E11C0EAE02E9E200D1124222E2B
S11313B0F32DF0623F2E08C08C3621F4832D806813
S11313C0382E02C0883641F4F70193FD859193FFCE
S11313D081917F018111B3CF982F9F7D95549330D4
S11313E028F40C5F1F4F9FE399830DC0833631F0BF
S11313F0833771F0833509F059C021C0F801808129
S113140089830E5F1F4F88248394912C530113C04A
S11314102801F2E04F0E511CF801A080B18036FE85
S113142003C0692D70E002C06FEF7FEFC5010E9419
S1131430A10C4C018201F32DFF773F2E16C0280129
S113144022E0420E511CF801A080B18036FE03C098
S1131450692D70E002C06FEF7FEFC5010E948F0C11
S11314604C01F32DF0683F2E820133FC1BC0822D0A
S113147090E088169906B0F4B60180E290E00E94EC
S1131480AC0C2A94F4CFF50137FC859137FE819199
S11314905F01B60190E00E94AC0C21102A9421E077
S11314A0821A91088114910471F7E8C0843611F00E
S11314B0893641F5F80137FE07C060817181828168
S11314C093810C5F1F4F08C060817181072E000C4F
S11314D0880B990B0E5F1F4FF32DFF763F2E97FF5E
S11314E009C090958095709561957F4F8F4F9F4F60
S11314F0F0683F2E2AE030E0A3010E94E80C882E19
S1131500861845C0853731F4232D2F7EB22E2AE06C
S113151030E025C0932D997FB92E8F36C1F018F491
S1131520883579F0B5C0803719F0883721F0B0C01C
S1131530E92FE061BE2EB4FE0DC0FB2DF460BF2E7A
S113154009C034FE0AC0292F2660B22E06C028E046
S113155030E005C020E130E002C020E132E0F801D3
S1131560B7FE07C060817181828193810C5F1F4F38
S113157006C06081718180E090E00E5F1F4FA3017F
S11315800E94E80C882E8618FB2DFF773F2E36FE2E
S11315900DC0232D2E7FA22E891458F434FE0BC0C7
S11315A032FC09C0832D8E7EA82E05C0B82CA32C36
S11315B003C0B82C01C0B92CA4FE0FC0FE01E80D75
S11315C0F11D8081803321F49A2D997EA92E09C0C2
S11315D0A2FE06C0B394B39404C08A2D867809F0A1
S11315E0B394A3FC11C0A0FE06C0B21488F4280C66
S11315F0922C9B180EC0B21460F4B60180E290E005
S11316000E94AC0CB394F7CFB21418F42B1802C098
S1131610982C212CA4FE10C0B60180E390E00E9417
S1131620AC0CA2FE17C0A1FC03C088E790E002C086
S113163088E590E0B6010CC08A2D867859F0A1FEA9
S113164002C08BE201C080E2A7FC8DE2B60190E00B
S11316500E94AC0C891438F4B60180E390E00E9437
S1131660AC0C9A94F7CF8A94F301E80DF11D8081B4
S1131670B60190E00E94AC0C8110F5CF222009F451
S113168042CEB60180E290E00E94AC0C2A94F6CFE0
S1131690F6018681978102C08FEF9FEF2B96E2E1DE
S11316A00C94620D0F931F93CF93DF93869F800159
S11316B0879F100D969F100D1124C8010E946E0B78
S11316C0EC01009729F0A80160E070E00E949A0CF8
S11316D0CE01DF91CF911F910F9108950F931F9326
S11316E0CF93DF938230910510F482E090E0E09193
S11316F03002F091310220E030E0A0E0B0E0309719
S113170019F1408151810281138148175907C8F0AA
S11317108417950769F4109731F012960C93129779
S113172013961C9327C0009330021093310222C0F9
S11317302115310519F04217530718F49A01BD0118
S1131740EF01DF01F801DBCF21153105F9F0281B8A
S1131750390B2430310580F48A819B816115710530
S113176021F0FB019383828304C090933102809320
S11317703002FE01329644C0FE01E20FF31F819352
S1131780919322503109398328833AC020912E0243
S113179030912F02232B41F4209102013091030157
S11317A030932F0220932E022091000130910101E9
S11317B02115310541F42DB73EB7409104015091F4
S11317C00501241B350BE0912E02F0912F02E21744
S11317D0F307A0F42E1B3F0B2817390778F0AC0150
S11317E04E5F5F4F2417350748F04E0F5F1F50932D
S11317F02F0240932E028193919302C0E0E0F0E027
S1131800CF01DF91CF911F910F910895CF93DF9373
S1131810009709F481C0FC01329713821282A091CF
S11318203002B0913102109781F420813181820F0E
S1131830931F20912E0230912F022817390751F55A
S1131840F0932F02E0932E0267C0ED0120E030E018
S1131850CE17DF0740F44A815B819E014115510593
S1131860F1F0EA01F5CFD383C28340815181840F23
S1131870951FC817D90759F488819981840F951F3A
S11318800296918380838A819B819383828321152D
S1131890310529F4F0933102E09330023DC0E901AF
S11318A0FB83EA8349915991C40FD51FEC17FD07B7
S11318B061F480819181840F951F0296E9019983D7
S11318C08883828193819B838A83E0E0F0E012968F
S11318D08D919C911397009719F0FD01DC01F7CFCE
S11318E08D919C9111979D012E5F3F4F820F931F05
S11318F020912E0230912F022817390769F430976E
S113190029F4109231021092300202C01382128222
S1131910B0932F02A0932E02DF91CF910895FC0182
S11319200590615070400110D8F7809590958E0F06
S11319309F1F0895DC0101C06D9341505040E0F7B2
S11319400895FC016150704001900110D8F7809512
S113195090958E0F9F1F08950F931F93CF93DF933E
S1131960FB01238121FD03C08FEF9FEF2CC022FFD9
S113197016C046815781248135814217530744F4A8
S1131980A081B1819D012F5F3F4F318320838C93D0
S1131990268137812F5F3F4F3783268314C08B0105
S11319A0EC01FB010084F185E02D0995892BE1F61A
S11319B0D80116968D919C911797019617969C9332
S11319C08E931697CE01DF91CF911F910F910895B9
S11319D0FA01AA27283051F1203181F1E8946F935C
S11319E06E7F6E5F7F4F8F4F9F4FAF4FB1E03ED002
S11319F0B4E03CD0670F781F891F9A1FA11D680FA0
S1131A00791F8A1F911DA11D6A0F711D811D911DD2
S1131A10A11D20D009F468943F912AE0269F112447
S1131A203019305D3193DEF6CF010895462F4770AB
S1131A30405D4193B3E00FD0C9F7F6CF462F4F7006
S1131A40405D4A3318F0495D31FD4052419302D064
S1131A50A9F7EACFB4E0A69597958795779567950A
S1131A60BA95C9F700976105710508959B01AC010A
S1131A700A2E06945795479537952795BA95C9F731
S1131A80620F731F841F951FA01D08952F923F920C
S1131A904F925F926F927F928F929F92AF92BF927A
S1131AA0CF92DF92EF92FF920F931F93CF93DF9326
S1131AB0CDB7DEB7CA1BDB0B0FB6F894DEBF0FBE83
S1131AC0CDBF09942A88398848885F846E847D84D0
S1131AD08C849B84AA84B984C884DF80EE80FD80D2
S1131AE00C811B81AA81B981CE0FD11D0FB6F89448
S1111AF0DEBF0FBECDBFED010895F894FFCF09
S1131AFE000032022000001200100400D801DF01A1
S1131B0EE501EA01F001F801FE0153544154555325
S1131B1E202564200A006D65737361676520726504
S1131B2E6365697665643A2025640A0D0064617400
S1131B3E61206C656E67746820726563656976658D
S1131B4E643A2025640A0D004E6F2076616C696438
S1131B5E206D6573736167652E2043414E494E5463
S1131B6E4620666C6167206C6F7721200A0D004D4C
S1131B7E435032353135206973204E4F5420696EEF
S1131B8E20636F6E66696775726174696F6E206D1E
S1131B9E6F64652061667465722072657365742165
S1131BAE0042555454544F4E2070726573736564DD
S1131BBE2000435552534F5220504F534954494FCE
S1131BCE4E3A202564200A00434F4C4F5552005084
S1131BDE4F494E54004241434B005354415254001A
S1131BEE506C61796572730053636F72650063693B
S1131BFE72636C6500544845204D45535341474527
S1131C0E2049533A202564202564202564200A0D9A
S1051C1E0000C0
S9030000FC
